:10000000B4C0000002C40000CCC00000CAC00000A0
:10001000C8C00000C6C00000C4C00000C8C50000C1
:10002000C0C00000BEC00000BCC00000BAC00000DC
:10003000B8C00000B6C00000F7C40000B2C00000A5
:10004000B0C00000AEC00000ACC00000AAC00000FC
:10005000A8C00000A6C00000A4C00000A2C000000C
:10006000A0C000009EC000006E616E00696E660058
:1000700000407A10F35A00A0724E18090010A5D45F
:10008000E80000E87648170000E40B54020000CABC
:100090009A3B000000E1F505000080969800000002
:1000A00040420F000000A086010000001027000061
:1000B0000000E803000000006400000000000A00E7
:1000C000000000000100000000002C76D888DC67EA
:1000D0004F0823DFC1DFAE59E1B1B796E5E3E45342
:1000E000C63AE651997696E8E6C28426EB898C9B5F
:1000F00062ED407C6FFCEFBC9C9F40F2BAA56FA5FF
:10010000F490055A2AF75C936B6CF9676DC11BFC80
:10011000E0E40D47FEF520E6B500D0ED902E03009B
:10012000943577050080841E080000204E0A0000E8
:1001300000C80C333333330F986E12831141EF8DA7
:100140002114893BE65516CFFEE6DB18D1844B38E7
:100150001BF77C1D901DA4BBE424203284725E2218
:100160008100C9F124ECA1E53D2711241FBECFEF8A
:10017000D8E0DEBFCDBF11E0A0E0B1E0E2E5F8E1FC
:1001800002C005900D92A035B107D9F721E0A0E596
:10019000B1E001C01D92AE37B207E1F7F2D30C9483
:1001A000270C2ECF54985698579820982198089548
:1001B00089B18295817091E08927089589B18295EE
:1001C000817091E089274E9B82604F9B8460189BD1
:1001D0008860199B806108951092B90088E480932B
:1001E000B800089524EA34E844E92093BC009091D3
:1001F000BC0097FFFCCF9091B900987F983011F028
:10020000903199F78093BB003093BC009091BC0073
:1002100097FFFCCF9091B900987F903219F09835F4
:1002200009F008954093BC009091BC0094FDFCCF70
:10023000DCCF8093BB0084E88093BC008091BC003D
:1002400087FFFCCF9091B900987F81E0983209F048
:10025000089580E0089588E0ECDF8CE0EADF88E034
:10026000E8DF8FEA94E00197F1F700C0000088E131
:10027000E0DF8CE1DEDF88E1DCDF8FEA94E00197EC
:10028000F1F700C000008FE39FE10197F1F700C094
:10029000000008951F93CF93DF93C0916501CE7F37
:1002A000C09365011C2F1860C295CF7080E1C89F74
:1002B000E0011124DC2FD8608D2FBBDF8C2F8C60E8
:1002C000B8DF8D2FB6DF8FEA94E00197F1F700C019
:1002D000000090E1199FE0011124DC2FD8608D2FE0
:1002E000A8DF8C2F8C60A5DF8D2FA3DF8FEA94E031
:1002F0000197F1F700C00000DF91CF911F910895A1
:100300001F93CF93DF93C0916501CD7FC0936501AB
:100310001C2F1860C295CF7080E1C89FE0011124A6
:10032000DC2FD8608D2F85DF8C2F8C6082DF8D2FA6
:1003300080DF8FEA94E00197F1F700C0000090E1C0
:10034000199FE0011124DC2FD8608D2F72DF8C2FD4
:100350008C606FDF8D2F6DDF8FEA94E00197F1F7EE
:1003600000C00000DF91CF911F9108950F931F935C
:10037000CF93DF93643008F063E0E62FF0E0E85FAE
:10038000FE4FC081C80FC0680C2F02950F7080E12E
:10039000089F80011124D02FD8608D2F4ADF802F35
:1003A0008C6047DF8D2F45DF8FEA94E00197F1F7EE
:1003B00000C0000090E1C99FE0011124DC2FD8604B
:1003C0008D2F37DF8C2F8C6034DF8D2F32DF8FEA5B
:1003D00094E00197F1F700C00000DF91CF911F91E9
:1003E0000F910895CF92DF92EF92FF920F931F9398
:1003F000CF93DF93CDB7DEB7FE013B96419151918C
:100400009F0165E170E080E591E00E94A10B009101
:100410005001002399F191E5C92E91E0D92EE02EEB
:10042000E2948FE0E82280E1E89E700111241E2D05
:100430001960812FFEDE8E2D8D60FBDE812FF9DEAF
:10044000EFEAF4E03197F1F700C00000F0E10F9F10
:1004500080011124102F1960812FEBDE802F8D6019
:10046000E8DE812FE6DE8FEA94E00197F1F700C025
:100470000000F60101916F010111D1CFDF91CF9101
:100480001F910F91FF90EF90DF90CF9008951F93F1
:10049000CF93DF938FE59AEE0197F1F700C000004C
:1004A00088E3C7DE8CE3C5DE88E3C3DE8FEA94E031
:1004B0000197F1F700C000008FE090E40197F1F799
:1004C00000C0000088E3B5DE8CE3B3DE88E3B1DE74
:1004D0008FEA94E00197F1F700C000008FE090E40C
:1004E0000197F1F700C0000088E3A3DE8CE3A1DEF2
:1004F00088E39FDE8FEA94E00197F1F700C00000E7
:100500008FE090E40197F1F700C0000088E291DEEF
:100510008CE28FDE88E28DDE8FEA94E00197F1F7BE
:1005200000C0000088E285DE8CE283DE88E281DEA6
:100530008FEA94E00197F1F700C0000088E879DEC7
:100540008CE877DE88E875DE8FEA94E00197F1F7B2
:1005500000C000001092650188E06BDE8CE069DE6F
:1005600088E067DE8FEA94E00197F1F700C00000B1
:1005700088E85FDE8CE85DDE88E85BDE8FEA94E089
:100580000197F1F700C0000088E053DE8CE051DEF7
:1005900088E04FDE8FEA94E00197F1F700C0000099
:1005A00088E147DE8CE145DE88E143DE8FEA94E0B6
:1005B0000197F1F700C000008FE39FE10197F1F789
:1005C00000C00000C09165018C2F8260809365019E
:1005D0001C2F1660C295CF7090E1C99FE0011124D5
:1005E000DC2FD8608D2F25DE8C2F8C6022DE8D2FA6
:1005F00020DE8FEA94E00197F1F700C0000090E15F
:10060000199FE0011124DC2FD8608D2F12DE8C2F72
:100610008C600FDE8D2F0DDE8FEA94E00197F1F7ED
:1006200000C0000088E005DE8CE003DE88E001DE2B
:100630008FEA94E00197F1F700C0000088E2F9DD4D
:100640008CE2F7DD88E2F5DD8FEA94E00197F1F7BF
:1006500000C000008FE39FE10197F1F700C00000A8
:10066000C09165018C2F8460809365011C2F1C60F4
:10067000C295CF7090E1C99FE0011124DC2FD860B2
:100680008D2FD7DD8C2F8C60D4DD8D2FD2DD8FEABE
:1006900094E00197F1F700C0000090E1199FE0019C
:1006A0001124DC2FD8608D2FC4DD8C2F8C60C1DD30
:1006B0008D2FBFDD8FEA94E00197F1F700C00000B5
:1006C000DF91CF911F910895259A089585B190E209
:1006D000892785B908958F929F92AF92BF92CF924A
:1006E000DF92EF92FF920F931F93CF93DF9300D08F
:1006F00000D00F92CDB7DEB780916C010CE4882357
:1007000021F00FE3813009F479C060E080E02EDE53
:100710008091680190916901A0916A01B0916B018B
:1007200089839A83AB83BC83BC01CD0128E532E089
:1007300040E050E04AD63F932F937F936F938CE035
:1007400091E09F938F934EDE61E080E00FDE5ED1FB
:100750008D83192FCAD18983C5D11F939D819F9302
:100760001F920F931F92A981AF931F928F938EE1D7
:1007700091E09F938F9336DE62E080E0F7DDBDD19C
:100780009F938F937F936F9383E391E09F938F93D6
:1007900029DE63E080E0EADDC7D169837D83182F1D
:1007A000092FC2D16B01A9D14B0108DD0F931F9313
:1007B000BD81BF9399819F93C818D908DF92CF92CA
:1007C0001F928F9382E491E09F938F930BDE0FB67D
:1007D000F894DEBF0FBECDBF0F900F900F900F901B
:1007E0000F90DF91CF911F910F91FF90EF90DF90CD
:1007F000CF90BF90AF909F908F90089500E585CFE8
:10080000809166019091670108951F920F920FB633
:100810000F9211240F931F932F933F934F935F9346
:100820006F937F938F939F93AF93BF93EF93FF93B8
:1008300023B1247080916C01882321F081E0211183
:1008400065C0282F40916601509167018091680131
:1008500090916901A0916A01B0916B01222309F482
:1008600057C04F5F5F4F50936701409366014091BF
:1008700000015091010160910201709103018A0110
:100880009B01095A1D4F2F4F3F4F80179107A20719
:10089000B30720F187559240A109B10980936801FF
:1008A00090936901A0936A01B0936B0180917000ED
:1008B000826080937000FF91EF91BF91AF919F9103
:1008C0008F917F916F915F914F913F912F911F91E8
:1008D0000F910F900FBE0F901F9018950196A11DBC
:1008E000B11D8093680190936901A0936A01B09350
:1008F0006B01893522E09207A105B105B8F24817CE
:1009000059076A077B0790F226D1D0CF80E099CFB4
:100910004150510950936701409366010097A1052A
:10092000B10569F487E592E0A0E0B0E0809368014A
:1009300090936901A0936A01B0936B01B7CF0197BF
:10094000A109B1098093680190936901A0936A019C
:10095000B0936B01883522E09207A105B10508F438
:10096000A5CF409100015091010160910201709169
:10097000030184179507A607B70708F097CF16D18C
:1009800095CF8FEF85B988B98BB90CDC9DDE24DC5F
:100990008EE428DC7CDD88D1A8D0C82FA3D06C2FB2
:1009A000A7D09DD080936C0156DCAADC73DC93DE6B
:1009B00080916900836080936900E89A22982BD027
:1009C0007894F6DB882301F1809100019091010178
:1009D000A0910201B0910301873A9D4FAF4FBF4FE5
:1009E00099F48FB7F8944091680150916901609132
:1009F0006A0170916B014093000150930101609373
:100A00000201709303018FBF66DEDBCF809171011D
:100A10009091720108958DE787BD82E084BD94E0D6
:100A200095BD80936E0008951F920F920FB60F929E
:100A300011242F933F934F935F936F937F938F93E3
:100A40009F93AF93BF93EF93FF93CF93DF9300D028
:100A500000D0CDB7DEB780916D0190916E019C0101
:100A60002F5F3F4F843F9140D9F030936E01209328
:100A70006D010F900F900F900F90DF91CF91FF912C
:100A8000EF91BF91AF919F918F917F916F915F9106
:100A90004F913F912F910F900FBE0F901F9018957F
:100AA00010926E0110926D01ABDE9C0180916F017E
:100AB00090917001D901A81BB90B3093700120935C
:100AC0006F012CE330E0BFD428E532E040E050E095
:100AD0009ED43093720120937101F8DDCACF8091CA
:100AE000730108958091050108958091040108958E
:100AF00080930701609306010895CF93DF9300D0A0
:100B000000D0CDB7DEB78091760190917701A091AA
:100B10007801B0917901BC01CD010F900F900F9039
:100B20000F90DF91CF910895CF93DF9300D000D045
:100B3000CDB7DEB780917A0190917B01A0917C01C5
:100B4000B0917D01BC01CD010F900F900F900F90DF
:100B5000DF91CF910895209107016091060170E027
:100B60008091740190917501820F911D1BD4462FC5
:100B7000572F909375018093740180917A01909121
:100B80007B01A0917C01B0917D01052E000C660BCC
:100B9000770B840F951FA61FB71F80937A01909340
:100BA0007B01A0937C01B0937D01089508951F926D
:100BB0001FB61F9211244F935F936F937F938F9370
:100BC0009F93AF93BF93809170008D7F809370004F
:100BD0008FB7F89440917A0150917B0160917C012C
:100BE00070917D018FBF8091760190917701A091E6
:100BF0007801B091790184179507A607B70790F59A
:100C0000409A8FB7F89497EC9093B2009FEF97BB00
:100C10008FBF8091760190917701A0917801B0917A
:100C200079010196A11DB11D809376019093770102
:100C3000A0937801B0937901481759076A077B0799
:100C400029F080917000826080937000BF91AF9115
:100C50009F918F917F916F915F914F911F901FBED8
:100C60001F901895481759076A077B0728F740987F
:100C70008FB7F89497EC9093B2009FEF97BB8FBF1C
:100C80008091760190917701A0917801B0917901DE
:100C90000197A109B1098093760190937701A09300
:100CA0007801B0937901C8CF3A9A539A389A429A08
:100CB00083E38093B0008AE08093B1001092B30088
:100CC00088EC8093B40040988FB7F89497EC909399
:100CD000B2009FEF97BB8FBF0895A5E1B0E0E2E7B8
:100CE000F6E0B7C37C011B015A01DC0117961C9288
:100CF0001E92169713968C9181FF4AC3FE0131967E
:100D00004F01D70113969C91F10193FD859193FFBB
:100D100081911F01882309F4D3C2853239F493FDF0
:100D2000859193FF81911F01853231F4B70190E0E5
:100D3000D8D465015601E5CF10E0512C00E0003217
:100D400038F48B3209F190F48032F9F0833209F1F2
:100D500007FD34C020ED280F2A3020F506FF1BC008
:100D6000BAE01B9F200D1124122F05C08D3279F09F
:100D7000803371F70160F10193FD859193FF8191BB
:100D80001F018111DCCF1AC002600460F4CF08603B
:100D9000F2CF0061F0CFEAE05E9E200D1124522ECA
:100DA0000062E9CF8E3221F406FD8AC20064E3CFEF
:100DB0008C3611F40068DFCF8836E9F29BEB980F90
:100DC000933008F06FC00061805E06FF16E00F737D
:100DD000702E853609F06DC0689476F877FE73C082
:100DE000812F1C3308F08BE344244394480E27E002
:100DF000D5014D915D916D917D916D014C875D8720
:100E00006E877F87042DA4016C857D858E859F85E7
:100E10007AD35C01B981BC87B0FF04C06DE2662E55
:100E2000B3FF0BC05BE2652E71FC07C0E72DE470D9
:100E30006E2E72FE02C070E2672E0C850C7009F4F3
:100E400052C06110A8C2F3E000E0F51588F483E019
:100E5000052D081B73FC06C0B70180E290E041D469
:100E60000150D1F7662021F0B701862D90E039D4EA
:100E7000FC8548E6A42E40E0B42EF3FD04C03CE619
:100E8000A32E30E0B32E172D1071F501849181113E
:100E900021C0002309F44ECFB70180E290E021D4B5
:100EA0000150F7CF9BE9980F933008F034C10F7EC3
:100EB0008CCF863619F4689477F890CF112309F413
:100EC0008DCF11508BCF212F183010F027E017E075
:100ED000412C8ECF11118052B70190E002D42FEF38
:100EE000A21AB20AD2CF77FE75C04A0CFC85F4FF75
:100EF00004C08A81813309F44A9414140CF08DC023
:100F000028E0241510F428E0422E85E090E077FEDA
:100F100006C0C501B7FE02C090E080E001966110F6
:100F20000196112331F0212F30E02F5F3F4F820FC8
:100F3000931F5816190619F014F0052D081B872D5C
:100F4000897011F401116EC0662021F0B701862D61
:100F500090E0C7D373FC02C001116AC077FE93C052
:100F6000B98AA88AB7FE02C0198A188A688879885F
:100F7000A501441951095D8B4C8B412E512C6627DC
:100F80007727641975097B8B6A8BA614B7040CF458
:100F900055C08C899D89861597050CF04FC0F501C9
:100FA000E619F709E80DF91D818191E0691A7108C8
:100FB000AA89BB896A167B060CF442C0B70190E08F
:100FC00090D3BFEF6B167B0601F7B7018EE290E07E
:100FD00088D3DBCF76FC99CFE12FF0E0EA15FB0553
:100FE0003CF03CEFA3163FEFB30614F0689477F89B
:100FF0003296E80DF91D01C01150112319F08291AC
:101000008033D1F377FE81CF44244394410E1A15E7
:101010001B0431F02CF01A1978CF4424439475CF77
:1010200010E073CFB70180E290E05BD301508ACF2C
:10103000B70180E390E055D301508ECF80E3B5CF68
:10104000688979896150710940945094E889F989D7
:101050004E165F069CF4461A570A460E571EA414F5
:10106000B50441F49A81963360F4953319F4FC8504
:10107000F4FF07C0B70190E034D30BCF512C412CC3
:10108000ECCF81E3F7CF8A81813319F02C852F7E55
:101090002C87B70190E025D3112399F0B7018EE298
:1010A00090E01FD392E0692E610E12E0E12F1F5FE6
:1010B000E80DF92DF11D8081B70190E012D3611286
:1010C000F5CF85E690E074FE02C085E490E0B701BC
:1010D00008D3B7FC06C0A114B104B1F43C8534FFB9
:1010E00013C0B194A194B1088DE2B70190E0F9D298
:1010F00080E35AE0A516B1044CF4B70190E0F1D2B8
:10110000B701C501C096B8CF8BE2EFCF8F5F4AE041
:10111000A41AB108EECF8336B1F0833709F43AC090
:10112000833509F04BC0D501AD90BD906D01612FA5
:1011300070E006FD02C06FEF7FEFC501BCD23C013D
:10114000102F10680DC0650162E0C60ED11CD501DC
:101150008C91898366246394712C5401102F1F771E
:1011600013FD04C05614170409F010F5052D611481
:10117000710409F48ECEF50117FD859117FF819159
:101180005F01B70190E0ADD201110150B1E06B1ADF
:101190007108EDCFF501A190B1906F01612F70E062
:1011A00006FD02C06FEF7FEFC50190D23C01D6CFA4
:1011B000B70180E290E095D25A94D4CF843619F0EA
:1011C000893609F06CC007FF61C0F501619171912A
:1011D000819191916F010F7697FF08C0909580954E
:1011E000709561957F4F8F4F9F4F00682AE030E0E8
:1011F000A401CFD2A82EA818BA2C602E06FF0BC0CF
:10120000E89460F8A11638F404FF04C002FD02C09F
:101210000E7E602EB12E64FE95C0FE01EA0DF11D1A
:101220008081803309F087C0562D597E652E062DAA
:10123000087063FC95C060FE8FC01A2DB51410F4C1
:10124000150D1B1964FE92C0B70180E390E049D2EE
:1012500062FE08C088E790E061FE02C088E590E089
:10126000B7013FD2A11608F48DC0AA94B12C6FEF3C
:10127000A61AB60AA80CB91CD5018E915D01B7015A
:1012800090E02FD2A814B904B9F703CED5016D911F
:101290007D916D01072E000C880B990B9CCF702E51
:1012A000E89474F82AE030E0853731F1B02FB97F47
:1012B0007B2E8037A1F050F48835A1F08F36D1F025
:1012C000F701868197816596E2E1DFC08837C1F733
:1012D00074FE02C0689472F820E130E00DC068949A
:1012E00074F8F6CF04FF03C0EB2FE6607E2E20E1FA
:1012F00032E002C028E030E077FE15C0D5014D9104
:101300005D916D917D916D014C875D876E877F87C3
:10131000A4016C857D858E859F853BD2A82EA8185B
:10132000072D0F7769CFF501819191916F01AC0184
:1013300070E060E0E9CF62FC02C0B39478CFB39470
:10134000B39475CF862D867809F471CFF6CFB701A7
:1013500080E290E0C6D1B394B514C8F300E072CF38
:10136000052D0B19B51408F46DCFF8CF862D8678AE
:1013700009F478CF8BE261FE80E267FC8DE2B70171
:1013800090E06FCFB70180E390E0ABD111506ACF0E
:101390008FEF9FEF98CF24E000E0251508F064CD93
:1013A00084E056CD97FB072E16F4009406D077FD07
:1013B00008D086D007FC05D03EF4909581959F4FCC
:1013C0000895709561957F4F0895A1E21A2EAA1B8A
:1013D000BB1BFD010DC0AA1FBB1FEE1FFF1FA217E5
:1013E000B307E407F50720F0A21BB30BE40BF50BE2
:1013F000661F771F881F991F1A9469F7609570956B
:10140000809590959B01AC01BD01CF010895052EFB
:1014100097FB16F400940FD057FD05D0D6DF07FCDC
:1014200002D046F408C050954095309521953F4F25
:101430004F4F5F4F089590958095709561957F4FC0
:101440008F4F9F4F089550D0B7FF0895821B930B85
:1014500008952F923F924F925F926F927F928F9258
:101460009F92AF92BF92CF92DF92EF92FF920F9333
:101470001F93CF93DF93CDB7DEB7CA1BDB0B0FB63D
:10148000F894DEBF0FBECDBF09942A8839884888FA
:101490005F846E847D848C849B84AA84B984C88490
:1014A000DF80EE80FD800C811B81AA81B981CE0F87
:1014B000D11D0FB6F894DEBF0FBECDBFED0108956C
:1014C000AA1BBB1B51E107C0AA1FBB1FA617B7076A
:1014D00010F0A61BB70B881F991F5A95A9F7809586
:1014E0009095BC01CD010895A29FB001B39FC001AA
:1014F000A39F700D811D1124911DB29F700D811D40
:101500001124911D0895283008F027E03327DA01CF
:10151000990F311D87FD916000966105710539F4C1
:1015200032602E5F3D9330E32A95E1F708959F3FA7
:1015300030F080387105610509F03C5F3C5F3D93F8
:10154000913008F08068911DDF93CF931F930F9324
:10155000FF92EF92192F987F9695E92F9695969581
:10156000E90FFF27E653FF4F99273327EE24FF2487
:10157000A701E70105900894079428F4360FE71EA9
:10158000F81E491F511D660F771F881F991F06946B
:10159000A1F70590079428F4E70EF81E491F561F7F
:1015A000C11D770F881F991F661F0694A1F705902C
:1015B000079428F4F80E491F561FC71FD11D880F26
:1015C000991F661F771F0694A1F70590079420F4D2
:1015D000490F561FC71FD81F990F661F771F881FF7
:1015E0000694A9F784911095177041F0D695C79588
:1015F00057954795F794E7941A95C1F7E0E7F0E01F
:1016000068941590159135916591959105907FE2BB
:101610007395E118F10A430B560BC90BD009C0F7BB
:10162000E10CF11E431F561FC91FD01D7EF47033FD
:1016300011F48A95E6CFE894015030F0080F0AF4CF
:101640000027021708F4202F2395022F7A3328F061
:1016500079E37D932A95E9F710C07D932A9589F661
:10166000069497956795379517951794E118F10AA1
:10167000430B560BC90BD00998F023957E917395B7
:101680007A3308F070E37C932013B8F77E91706191
:101690007D9330F0839571E37D9370E32A95E1F7B4
:1016A0001124EF90FF900F911F91CF91DF91992717
:1016B00087FD90950895FC010590615070400110E0
:1016C000D8F7809590958E0F9F1F0895FC0161506B
:1016D000704001900110D8F7809590958E0F9F1F54
:1016E00008950F931F93CF93DF93182F092FEB01CA
:1016F0008B8181FD09C01FEF0FEF812F902FDF91AC
:10170000CF911F910F91089582FF14C02E813F81C8
:101710008C819D81281739073CF4E881F981CF013C
:1017200001969983888310838E819F8101969F8380
:101730008E83E3CFE885F985812F0995892BA1F365
:10174000DACFAEE0B0E0E6EAFBE091CE8C01CB016F
:10175000BA01A90126E02C831A83098397FF02C0EE
:1017600080E090E801979E838D83CE010196B5DAE3
:101770004D815E8157FD0AC02F813885421753077E
:101780000CF49A01020F131FF80110822E96E4E068
:101790008ACEFA01AA27283051F1203181F1E8944C
:1017A0006F936E7F6E5F7F4F8F4F9F4FAF4FB1E054
:1017B0003ED0B4E03CD0670F781F891F9A1FA11D4F
:1017C000680F791F8A1F911DA11D6A0F711D811D50
:1017D000911DA11D20D009F468943F912AE0269F15
:1017E00011243019305D3193DEF6CF010895462F74
:1017F0004770405D4193B3E00FD0C9F7F6CF462F55
:101800004F70405D4A3318F0495D31FD40524193BD
:1018100002D0A9F7EACFB4E0A6959795879577957A
:101820006795BA95C9F700976105710508959B0101
:10183000AC010A2E06945795479537952795BA958A
:10184000C9F7620F731F841F951FA01D0895F89498
:02185000FFCFC8
:10185200A7FDFFFF01010101004014547672657477
:10186200656E6F3A202534752020253575002533A5
:10187200752F252D33752563253569206F742F6DDE
:10188200696E00737570706F72743A202531316C15
:10189200750025327520253569202531316C75009A
:00000001FF
