:1000000033C0000041C200004AC0000048C00000E8
:1000100046C0000044C0000042C000005BC30000B6
:100020003EC000003CC000003AC00000A8C2000072
:1000300036C0000034C0000032C0000030C00000F4
:100040002EC000002CC000002AC0000028C0000004
:1000500026C0000024C0000022C0000020C0000014
:100060001EC000001CC0000011241FBECFEFD8E04E
:10007000DEBFCDBF11E0A0E0B1E0E8EFFEE002C0DE
:1000800005900D92AA34B107D9F721E0AAE4B1E0B6
:1000900001C01D92A437B207E1F77BD32BC7B0CFC5
:1000A0001092B90088E48093B800089524EA34E8F7
:1000B00044E92093BC009091BC0097FFFCCF909145
:1000C000B900987F983011F0903199F78093BB0078
:1000D0003093BC009091BC0097FFFCCF9091B90089
:1000E000987F903219F0983509F008954093BC003C
:1000F0009091BC0094FDFCCFDCCF8093BB0084E8E2
:100100008093BC008091BC0087FFFCCF9091B90028
:10011000987F81E0983209F0089580E008950F9368
:100120001F93CF93DF93643008F063E0E62FF0E095
:10013000EB5FFE4F9081C82FC90FC0680C2F02954E
:100140000F7080E1089F80011124D02FD8608D2F7F
:10015000D4DF802F8C60D1DF8D2FCFDF8FEA94E04A
:100160000197F1F700C0000090E1C99FE001112460
:10017000DC2FD8608D2FC1DF8C2F8C60BEDF8D2FE0
:10018000BCDF8FEA94E00197F1F700C00000DF9137
:10019000CF911F910F910895CF92DF92EF92FF922E
:1001A0000F931F93CF93DF93CDB7DEB79E01255FEB
:1001B0003F4FF901419151919F0165E170E08AE45F
:1001C00091E0B6D300914A01002399F19BE4C92E36
:1001D00091E0D92EE02EE2948FE0E822F0E1EF9E4C
:1001E000700111241E2D1960812F87DF8E2D8D60E7
:1001F00084DF812F82DF8FEA94E00197F1F700C05E
:10020000000090E1099F80011124102F1960812FB7
:1002100074DF802F8D6071DF812F6FDFEFEAF4E0F4
:100220003197F1F700C00000F60101916F01011153
:10023000D1CFDF91CF911F910F91FF90EF90DF9081
:10024000CF9008950F931F93CF93DF932FEF81EEFD
:1002500094E0215080409040E1F700C0000088E326
:100260004CDF8CE34ADF88E348DF8FEA94E00197B4
:10027000F1F700C000008FE090E40197F1F700C0B3
:10028000000088E33ADF8CE338DF88E336DF8FEA6B
:1002900094E00197F1F700C000008FE090E401972F
:1002A000F1F700C0000088E328DF8CE326DF88E355
:1002B00024DF8FEA94E00197F1F700C000008FE09F
:1002C00090E40197F1F700C0000088E216DF8CE2AD
:1002D00014DF88E212DF8FEA94E00197F1F700C0A3
:1002E000000088E20ADF8CE208DF88E206DF8FEA9E
:1002F00094E00197F1F700C0000088E8FEDE8CE88A
:10030000FCDE88E8FADE8FEA94E00197F1F700C09E
:10031000000010925F0188E0F0DE8CE0EEDE88E005
:10032000ECDE8FEA94E00197F1F700C0000088E866
:10033000E4DE8CE8E2DE88E8E0DE8FEA94E0019714
:10034000F1F700C0000088E0D8DE8CE0D6DE88E05F
:10035000D4DE8FEA94E00197F1F700C0000088E155
:10036000CCDE8CE1CADE88E1C8DE8FEA94E001973A
:10037000F1F700C000008FE39FE10197F1F700C0A3
:100380000000C0915F018C2F826080935F01C66086
:100390000C2F02950F7090E1099F80011124D02F3E
:1003A000D8608D2FAADE802F8C60A7DE8D2FA5DE72
:1003B0008FEA94E00197F1F700C0000090E1C99F37
:1003C000E0011124DC2FD8608D2F97DE8C2F8C60FC
:1003D00094DE8D2F92DE8FEA94E00197F1F700C052
:1003E000000088E08ADE8CE088DE88E086DE8FEA26
:1003F00094E00197F1F700C0000088E27EDE8CE215
:100400007CDE88E27ADE8FEA94E00197F1F700C0A3
:1004100000008FE39FE10197F1F700C00000C09159
:100420005F018C2F846080935F01CC600C2F02955C
:100430000F7090E1099F80011124D02FD8608D2F7B
:100440005CDE802F8C6059DE8D2F57DE8FEA94E0C2
:100450000197F1F700C0000090E1C99FE00111246D
:10046000DC2FD8608D2F49DE8C2F8C6046DE8D2FDF
:1004700044DE8FEA94E00197F1F700C00000DF91BD
:10048000CF911F910F9108951F920F920FB60F9267
:1004900011242F933F938F939F934B9B35C081E003
:1004A0008093040180917001909171010196909365
:1004B0007101809370018091720190917301873571
:1004C000924008F452C01092730110927201209170
:1004D0006E0130916F018091020190910301281704
:1004E000390748F480916E0190916F0101969093C5
:1004F0006F0180936E019F918F913F912F910F908B
:100500000FBE0F901F9018951092040180917001FA
:100510009091710101979093710180937001809186
:10052000720190917301892BB1F487E592E0909369
:1005300073018093720180916E0190916F01892BFC
:10054000D1F280916E0190916F01019790936F01AC
:1005500080936E01D0CF80917201909173010197C9
:100560009093730180937201C6CF80917201909134
:10057000730101969093730180937201BCCF1F9217
:100580000F920FB60F921124EF92FF920F931F93C9
:100590002F933F934F935F936F937F938F939F938B
:1005A000AF93BF93EF93FF938FB7F89420916E01B1
:1005B00030916F0140917201509173018FBF2115ED
:1005C0003105B1F08091020190910301281739079C
:1005D00008F062C021503109A8E5B2E090D17B015A
:1005E0008C01E40EF51E011D111DA801970103C029
:1005F00020E030E0A901A0910101E0910001B0E00C
:100600008DD12E2F30E040E050E057D1209366018D
:100610003093670140936801509369015D9B58C016
:1006200080916A0190916B01A0916C01B0916D0174
:1006300082179307A407B507A8F1281739074A07B7
:100640005B07A8F440985D9880916A0190916B01D6
:10065000A0916C01B0916D010197A109B10980933E
:100660006A0190936B01A0936C01B0936D01FF91AF
:10067000EF91BF91AF919F918F917F916F915F911A
:100680004F913F912F911F910F91FF90EF900F90FD
:100690000FBE0F901F901895A8E5B2E030D19B01D6
:1006A000AC01A9CF409A5D9880916A0190916B014D
:1006B000A0916C01B0916D010196A11DB11D8093B7
:1006C0006A0190936B01A0936C01B0936D01CFCF41
:1006D0005D9ACDCF1F920F920FB60F9211242F93D8
:1006E0003F934F935F936F937F938F939F93AF93BA
:1006F000BF93CF93DF93EF93FF938091600190912D
:100700006101883E23E09207C1F001969093610158
:1007100080936001FF91EF91DF91CF91BF91AF91F5
:100720009F918F917F916F915F914F913F912F9109
:100730000F900FBE0F901F901895109261011092AC
:100740006001C0917001D09171018091620190911E
:1007500063019E01281B390BACE3B0E0D0D028E543
:1007600032E040E050E0A9D080910401882369F094
:100770003093650120936401D0936301C0936201BB
:1007800095B180E2892785B9C5CF31952195310989
:10079000EFCF8FEF85B988B98BB9259A3A9A559AD8
:1007A000389A429A80916900836080936900E89A40
:1007B00053981092890088EC8093880010928000F2
:1007C0008BE08093810082E080936F009DE790939F
:1007D000B3008093B00095E09093B10080937000D7
:1007E0005FDC8EE463DC2EDD7894259A89E0C82EE8
:1007F00081E0D82E9CE1E92E91E0F92E02E311E090
:10080000C0E4D1E060E080E08ADC20916E013091AC
:100810006F0180917201909173013F932F939F9389
:100820008F93DF92CF92B8DC61E080E078DC80913A
:100830006401909165019F938F93FF92EF92ACDCDE
:1008400062E080E06CDC80916D018F9380916C019F
:100850008F9380916B018F9380916A018F931F9387
:100860000F939ADC63E080E05ADC4091660150917E
:1008700067016091680170916901809166019091B2
:100880006701A0916801B09169017F936F935F93B5
:100890004F9320916A0130916B01821B930B9F93C0
:1008A0008F93DF93CF9378DC8DB79EB748960FB6C2
:1008B000F8949EBF0FBE8DBFA5CFA1E21A2EAA1B32
:1008C000BB1BFD010DC0AA1FBB1FEE1FFF1FA21700
:1008D000B307E407F50720F0A21BB30BE40BF50BFD
:1008E000661F771F881F991F1A9469F76095709586
:1008F000809590959B01AC01BD01CF010895A29F09
:10090000B001B39FC001A39F700D811D1124911DE3
:10091000B29F700D811D1124911D0895F0DFA59FD8
:10092000900DB49F900DA49F800D911D11240895EA
:10093000AEE0B0E0EDE9F4E0B4C28C01FA0186E08B
:100940008C831A83098377FF02C060E070E8CB01D3
:1009500001979E838D83A901BF01CE01019611D01D
:100960004D815E8157FD0AC02F813885421753079C
:100970000CF49A01F801E20FF31F10822E96E4E0C6
:10098000ACC2ABE0B0E0E6ECF4E07DC26C017B0110
:100990008A01FC0117821682838181FFBFC1CE01CB
:1009A00001963C01F6019381F70193FD859193FF38
:1009B00081917F01882309F4ADC1853239F493FD1B
:1009C000859193FF81917F01853221F4B60190E0FA
:1009D000C0D1E8CF912C212C312CFFE1F315D8F0B8
:1009E0008B3279F038F4803279F08332A1F4232D00
:1009F00020611DC08D3261F0803369F4232D2160A8
:100A000016C0832D8260382EE32DE4603E2E2AC06E
:100A1000F32DF8601DC037FC2DC020ED280F2A30C3
:100A200040F08E32B9F436FC75C1232D2064322E8D
:100A300019C036FE06C08AE0989E200D1124922E21
:100A400011C0EAE02E9E200D1124222EF32DF0621B
:100A50003F2E08C08C3621F4832D8068382E02C0CA
:100A6000883641F4F70193FD859193FF81917F01D1
:100A70008111B3CF982F9F7D9554933028F40C5F4C
:100A80001F4F9FE399830DC0833631F0833771F098
:100A9000833509F055C020C0F801808189830E5F3D
:100AA0001F4F88248394912C530112C02801F2E037
:100AB0004F0E511CF801A080B18036FE03C0692D95
:100AC00070E002C06FEF7FEFC50138D14C018201A9
:100AD000F32DFF773F2E15C0280122E0420E511C56
:100AE000F801A080B18036FE03C0692D70E002C01D
:100AF0006FEF7FEFC50117D14C01F32DF0683F2E4A
:100B0000820133FC19C0822D90E088169906A0F46A
:100B1000B60180E290E01DD12A94F5CFF50137FCB3
:100B2000859137FE81915F01B60190E012D12110CD
:100B30002A9421E0821A91088114910479F7E1C086
:100B4000843611F0893639F5F80137FE07C0608127
:100B50007181828193810C5F1F4F08C06081718118
:100B6000072E000C880B990B0E5F1F4FF32DFF769D
:100B70003F2E97FF09C090958095709561957F4FA6
:100B80008F4F9F4FF0683F2E2AE030E0A3011DD128
:100B9000882E861844C0853731F4232D2F7EB22E3F
:100BA0002AE030E025C0932D997FB92E8F36C1F011
:100BB00018F4883579F0AEC0803719F0883721F005
:100BC000A9C0E92FE061BE2EB4FE0DC0FB2DF4607C
:100BD000BF2E09C034FE0AC0292F2660B22E06C0DF
:100BE00028E030E005C020E130E002C020E132E042
:100BF000F801B7FE07C060817181828193810C5F2B
:100C00001F4F06C06081718180E090E00E5F1F4F32
:100C1000A301DBD0882E8618FB2DFF773F2E36FEF2
:100C20000DC0232D2E7FA22E891458F434FE0BC044
:100C300032FC09C0832D8E7EA82E05C0B82CA32CB3
:100C400003C0B82C01C0B92CA4FE0FC0FE01E80DF2
:100C5000F11D8081803321F49A2D997EA92E09C03F
:100C6000A2FE06C0B394B39404C08A2D867809F01E
:100C7000B394A3FC10C0A0FE06C0B21480F4280CEC
:100C8000922C9B180DC0B21458F4B60180E290E08B
:100C900060D0B394F8CFB21418F42B1802C0982C7B
:100CA000212CA4FE0FC0B60180E390E052D0A2FE3A
:100CB00016C0A1FC03C088E790E002C088E590E080
:100CC000B6010CC08A2D867851F0A1FE02C08BE2DD
:100CD00001C080E2A7FC8DE2B60190E03AD0891411
:100CE00030F4B60180E390E034D09A94F8CF8A943F
:100CF000F301E80DF11D8081B60190E02AD081104A
:100D0000F6CF222009F44ECEB60180E290E021D049
:100D10002A94F7CFF6018681978102C08FEF9FEF6B
:100D20002B96E2E1CCC0FC010590615070400110AF
:100D3000D8F7809590958E0F9F1F0895FC01615004
:100D4000704001900110D8F7809590958E0F9F1FED
:100D500008950F931F93CF93DF93FB01238121FD10
:100D600003C08FEF9FEF2CC022FF16C04681578132
:100D7000248135814217530744F4A081B1819D013C
:100D80002F5F3F4F318320838C93268137812F5FE4
:100D90003F4F3783268314C08B01EC01FB01008495
:100DA000F185E02D0995892BE1F6D80116968D91F4
:100DB0009C911797019617969C938E931697CE0148
:100DC000DF91CF911F910F910895FA01AA27283042
:100DD00051F1203181F1E8946F936E7F6E5F7F4F08
:100DE0008F4F9F4FAF4FB1E03ED0B4E03CD0670F84
:100DF000781F891F9A1FA11D680F791F8A1F911DD7
:100E0000A11D6A0F711D811D911DA11D20D009F426
:100E100068943F912AE0269F11243019305D319368
:100E2000DEF6CF010895462F4770405D4193B3E051
:100E30000FD0C9F7F6CF462F4F70405D4A3318F0F8
:100E4000495D31FD4052419302D0A9F7EACFB4E0A9
:100E5000A6959795879577956795BA95C9F7009761
:100E60006105710508959B01AC010A2E0694579502
:100E7000479537952795BA95C9F7620F731F841F59
:100E8000951FA01D08952F923F924F925F926F92EF
:100E90007F928F929F92AF92BF92CF92DF92EF920A
:100EA000FF920F931F93CF93DF93CDB7DEB7CA1B8B
:100EB000DB0B0FB6F894DEBF0FBECDBF09942A88B6
:100EC000398848885F846E847D848C849B84AA845E
:100ED000B984C884DF80EE80FD800C811B81AA81EB
:100EE000B981CE0FD11D0FB6F894DEBF0FBECDBFB6
:080EF000ED010895F894FFCF15
:100EF8007B7BFFFF010040145476726574656E6F4A
:100F08003A2020252D3575202533750020202020F6
:100F180020202020202020202569206F742F6D6933
:100F28006E00737570706F72743A20252D6C7500A1
:0A0F380025386920252D6C75000096
:00000001FF
