:10000000B4C000007EC40000CCC00000CAC0000024
:10001000C8C00000C6C00000C4C000000C9459084D
:10002000C0C00000BEC00000BCC00000BAC00000DC
:10003000B8C00000B6C000006FC50000B2C000002C
:10004000B0C00000AEC00000ACC00000AAC00000FC
:10005000A8C00000A6C00000A4C00000A2C000000C
:10006000A0C000009EC000006E616E00696E660058
:1000700000407A10F35A00A0724E18090010A5D45F
:10008000E80000E87648170000E40B54020000CABC
:100090009A3B000000E1F505000080969800000002
:1000A00040420F000000A086010000001027000061
:1000B0000000E803000000006400000000000A00E7
:1000C000000000000100000000002C76D888DC67EA
:1000D0004F0823DFC1DFAE59E1B1B796E5E3E45342
:1000E000C63AE651997696E8E6C28426EB898C9B5F
:1000F00062ED407C6FFCEFBC9C9F40F2BAA56FA5FF
:10010000F490055A2AF75C936B6CF9676DC11BFC80
:10011000E0E40D47FEF520E6B500D0ED902E03009B
:10012000943577050080841E080000204E0A0000E8
:1001300000C80C333333330F986E12831141EF8DA7
:100140002114893BE65516CFFEE6DB18D1844B38E7
:100150001BF77C1D901DA4BBE424203284725E2218
:100160008100C9F124ECA1E53D2711241FBECFEF8A
:10017000D8E0DEBFCDBF11E0A0E0B1E0EAE1FFE1F1
:1001800002C005900D92A638B107D9F721E0A6E884
:10019000B1E001C01D92A43BB207E1F769D40C9411
:1001A0007E0F2ECF549856985798209821980895EE
:1001B00089B18295817091E08927089589B186FB84
:1001C000882780F991E08927089589B18095881F53
:1001D0008827881F089589B18295817091E08927C9
:1001E0004E9B82604F9B8460189B8860199B806146
:1001F00008951092B90088E48093B800089524EA25
:1002000034E844E92093BC009091BC0097FFFCCFF8
:100210009091B900987F983011F0903199F78093C0
:10022000BB003093BC009091BC0097FFFCCF909135
:10023000B900987F903219F0983509F008954093ED
:10024000BC009091BC0094FDFCCFDCCF8093BB0040
:1002500084E88093BC008091BC0087FFFCCF909124
:10026000B900987F81E0983209F0089580E0089500
:1002700088E0ECDF8CE0EADF88E0E8DF8FEA94E0FA
:100280000197F1F700C0000088E1E0DF8CE1DEDFDC
:1002900088E1DCDF8FEA94E00197F1F700C000000D
:1002A0008FE39FE10197F1F700C0000008951F93CD
:1002B000CF93DF93C0919B018C2F816080939B0132
:1002C0001C2F1960C295CF7080E1C89FE0011124F6
:1002D000DC2FD8608D2FBADF8C2F8C60B7DF8D2F8D
:1002E000B5DF8FEA94E00197F1F700C0000090E1DC
:1002F000199FE0011124DC2FD8608D2FA7DF8C2FF0
:100300008C60A4DF8D2FA2DF8FEA94E00197F1F7D4
:1003100000C00000DF91CF911F9108951F93CF93EC
:10032000DF93C0919B01CE7FC0939B011C2F18606F
:10033000C295CF7080E1C89FE0011124DC2FD86006
:100340008D2F84DF8C2F8C6081DF8D2F7FDF8FEAF4
:1003500094E00197F1F700C0000090E1199FE001DF
:100360001124DC2FD8608D2F71DF8C2F8C606EDF15
:100370008D2F6CDF8FEA94E00197F1F700C0000049
:10038000DF91CF911F9108951F93CF93DF93C09179
:100390009B018C2F826080939B011C2F1A60C29559
:1003A000CF7080E1C89FE0011124DC2FD8608D2F31
:1003B0004DDF8C2F8C604ADF8D2F48DF8FEA94E071
:1003C0000197F1F700C0000090E1199FE0011124AE
:1003D000DC2FD8608D2F3ADF8C2F8C6037DF8D2F8C
:1003E00035DF8FEA94E00197F1F700C00000DF915C
:1003F000CF911F9108951F93CF93DF93C0919B01DD
:10040000CD7FC0939B011C2F1860C295CF7080E1F7
:10041000C89FE0011124DC2FD8608D2F17DF8C2FAF
:100420008C6014DF8D2F12DF8FEA94E00197F1F7D3
:1004300000C0000090E1199FE0011124DC2FD8607A
:100440008D2F04DF8C2F8C6001DF8D2FFFDE8FEA74
:1004500094E00197F1F700C00000DF91CF911F9168
:1004600008950F931F93CF93DF93643008F063E0F8
:10047000E62FF0E0E85FFE4FC081C80FC0680C2F88
:1004800002950F7080E1089F80011124D02FD86061
:100490008D2FDCDE802F8C60D9DE8D2FD7DE8FEAAA
:1004A00094E00197F1F700C0000090E1C99FE001DE
:1004B0001124DC2FD8608D2FC9DE8C2F8C60C6DE16
:1004C0008D2FC4DE8FEA94E00197F1F700C00000A1
:1004D000DF91CF911F910F910895CF92DF92EF920C
:1004E000FF920F931F93CF93DF93CDB7DEB7FE013B
:1004F0003B96419151919F0165E170E086E891E062
:100500000E94F80E00918601002399F197E8C92E08
:1005100091E0D92EE02EE2948FE0E82280E1E89E7F
:10052000700111241E2D1960812F90DE8E2D8D609B
:100530008DDE812F8BDEEFEAF4E03197F1F700C01A
:100540000000F0E10F9F80011124102F1960812F0E
:100550007DDE802F8D607ADE812F78DE8FEA94E059
:100560000197F1F700C00000F60101916F01011140
:10057000D1CFDF91CF911F910F91FF90EF90DF903E
:10058000CF9008951F93CF93DF938FE59AEE019755
:10059000F1F700C0000088E359DE8CE357DE88E302
:1005A00055DE8FEA94E00197F1F700C000008FE07C
:1005B00090E40197F1F700C0000088E347DE8CE388
:1005C00045DE88E343DE8FEA94E00197F1F700C04F
:1005D00000008FE090E40197F1F700C0000088E38D
:1005E00035DE8CE333DE88E331DE8FEA94E0019779
:1005F000F1F700C000008FE090E40197F1F700C030
:10060000000088E223DE8CE221DE88E21FDE8FEA32
:1006100094E00197F1F700C0000088E217DE8CE259
:1006200015DE88E213DE8FEA94E00197F1F700C04F
:10063000000088E80BDE8CE809DE88E807DE8FEA38
:1006400094E00197F1F700C0000010929B0188E050
:10065000FDDD8CE0FBDD88E0F9DD8FEA94E00197B9
:10066000F1F700C0000088E8F1DD8CE8EFDD88E8F4
:10067000EDDD8FEA94E00197F1F700C0000088E01B
:10068000E5DD8CE0E3DD88E0E1DD8FEA94E00197D1
:10069000F1F700C0000088E1D9DD8CE1D7DD88E109
:1006A000D5DD8FEA94E00197F1F700C000008FE3F9
:1006B0009FE10197F1F700C00000C0919B018C2FD2
:1006C000826080939B011C2F1660C295CF7090E1D1
:1006D000C99FE0011124DC2FD8608D2FB7DD8C2F4E
:1006E0008C60B4DD8D2FB2DD8FEA94E00197F1F7D5
:1006F00000C0000090E1199FE0011124DC2FD860B8
:100700008D2FA4DD8C2F8C60A1DD8D2F9FDD8FEAD6
:1007100094E00197F1F700C0000088E097DD8CE0DD
:1007200095DD88E093DD8FEA94E00197F1F700C052
:10073000000088E28BDD8CE289DD88E287DD8FEACC
:1007400094E00197F1F700C000008FE39FE101976B
:10075000F1F700C00000C0919B018C2F8460809352
:100760009B011C2F1C60C295CF7090E1C99FE001D6
:100770001124DC2FD8608D2F69DD8C2F8C6066DD15
:100780008D2F64DD8FEA94E00197F1F700C000003F
:1007900090E1199FE0011124DC2FD8608D2F56DDE8
:1007A0008C2F8C6053DD8D2F51DD8FEA94E0019703
:1007B000F1F700C00000DF91CF911F910895259AB5
:1007C000089585B190E2892785B908958F929F9207
:1007D000AF92BF92CF92DF92EF92FF920F931F934F
:1007E000CF93DF9300D000D00F92CDB7DEB78091CA
:1007F000A2010CE4882321F00FE3813009F47AC0D0
:1008000060E080E02EDE80919E0190919F01A0919A
:10081000A001B091A10189839A83AB83BC83BC0101
:10082000CD0128E532E040E050E00E944A0D3F93C0
:100830002F937F936F938CE091E09F938F934DDE86
:1008400061E080E00EDE5AD18D83192FC6D18983F5
:10085000C1D11F939D819F931F920F931F92A981D6
:10086000AF931F928F938EE191E09F938F9335DE2C
:1008700062E080E0F6DD2DD39F938F937F936F939B
:1008800083E391E09F938F9328DE63E080E0E9DDCE
:1008900037D369837D83182F092F32D36B0119D386
:1008A0004B0199DC0F931F93BD81BF9399819F9357
:1008B000C818D908DF92CF921F928F9382E491E0FB
:1008C0009F938F930ADE0FB6F894DEBF0FBECDBFA5
:1008D0000F900F900F900F900F90DF91CF911F917D
:1008E0000F91FF90EF90DF90CF90BF90AF909F90CF
:1008F0008F90089500E584CF80919C0190919D0197
:1009000008951F920F920FB60F9211240F931F9309
:100910002F933F934F935F936F937F938F939F9307
:10092000AF93BF93EF93FF9323B124708091A20103
:10093000882321F081E0211160C0282F40919C0183
:1009400050919D0180919E0190919F01A091A001E5
:10095000B091A101222309F452C04F5F5F4F509321
:100960009D0140939C0140910001509101016091D3
:100970000201709103018A019B01095A1D4F2F4FFB
:100980003F4F80179107A207B307F8F087559240B1
:10099000A109B10980939E0190939F01A093A001AA
:1009A000B093A101FF91EF91BF91AF919F918F9172
:1009B0007F916F915F914F913F912F911F910F9177
:1009C0000F900FBE0F901F9018950196A11DB11D9D
:1009D00080939E0190939F01A093A001B093A101E9
:1009E000893522E09207A105B105E0F248175907C1
:1009F0006A077B07B8F29BD2D5CF80E09ECF4150EB
:100A0000510950939D0140939C010097A105B105A8
:100A100069F487E592E0A0E0B0E080939E019093B6
:100A20009F01A093A001B093A101BCCF0197A109A0
:100A3000B10980939E0190939F01A093A001B09370
:100A4000A101883522E09207A105B10508F4AACFDB
:100A500040910001509101016091020170910301E8
:100A600084179507A607B70708F09CCFBBD29ACF8B
:100A70008FEF85B988B98BB995DBA1DEBADB8EE43F
:100A8000BEDB80DD93D3ACD0A8D0C82FA3D06C2F11
:100A90001BD29DD08093A201EBDBADDC3FDC96DE68
:100AA00080916900836080936900E89A22982BD036
:100AB00078947EDB882301F18091000190910101FF
:100AC000A0910201B0910301873A9D4FAF4FBF4FF4
:100AD00099F48FB7F89440919E0150919F016091D5
:100AE000A0017091A1014093000150930101609316
:100AF0000201709303018FBF69DEDBCF8091A701F4
:100B00009091A80108958DE787BD82E084BD94E0AF
:100B100095BD80936E0008951F920F920FB60F92AD
:100B200011242F933F934F935F936F937F938F93F2
:100B30009F93AF93BF93EF93FF93CF93DF9300D037
:100B400000D0CDB7DEB78091A3019091A4019C01A4
:100B50002F5F3F4F843F9140D9F03093A401209301
:100B6000A3010F900F900F900F90DF91CF91FF9105
:100B7000EF91BF91AF919F918F917F916F915F9115
:100B80004F913F912F910F900FBE0F901F9018958E
:100B90001092A4011092A301AFDE9C018091A501E7
:100BA0009091A601D901A81BB90B3093A6012093FF
:100BB000A5012CE330E0B2D728E532E040E050E078
:100BC0008BD73093A8012093A701FBDDCACF80917A
:100BD000A901089580910501089580910401089567
:100BE0006F927F928F929F92AF92BF92CF92DF923D
:100BF000EF92FF920F931F93CF93DF9300D000D01B
:100C000000D0CDB7DEB71D828BE5E82E81E0F82E4F
:100C10000AE611E0CC24C39460E080E022DCB4DB7F
:100C200046DB30910401209105018091A9018823C0
:100C300009F4E4C085E591E01F923F931F922F9342
:100C40009F938F93FF92EF9248DC62E080E009DC93
:100C50007090050160900401A62CB12C872D90E0C6
:100C6000B0E0A0E089839A83AB83BC83BC01CD0153
:100C70001ED34B01D82E9E83C501BB0CAA0BBB0B08
:100C800089839A83AB83BC83BC01CD0112D39B01C2
:100C9000AC0189829A82DB829E819C8369817A8100
:100CA0008B819C819CD29F938F937F936F931F9294
:100CB0006F921F927F921F930F930FDC60E08D81E4
:100CC000D0DB76DA0FB6F894DEBF0FBECDBF882337
:100CD000A9F180910401BD81BD3008F092C0EB2FD5
:100CE000F0E0E758FE4F20812D83811102C0C092B1
:100CF000040171DA8111FDCFBFEFE1EEF4E0B150F4
:100D0000E040F040E1F700C000002D812F3F09F0E6
:100D100083CF26960FB6F894DEBF0FBECDBFDF910E
:100D2000CF911F910F91FF90EF90DF90CF90BF90E8
:100D3000AF909F908F907F906F9008953D813D3050
:100D400028F4E32FF0E0E058F04FE2C68091040170
:100D5000CCCF34DA882309F45BC0809104018F3F43
:100D6000B9F08F5F15C02ADA882309F45EC080913C
:100D70000401863F08F0A4C0865F0AC01FDA8823FA
:100D800009F460C0809104018C3908F099C08C5935
:100D900080930401AECF12DA882309F460C08091F9
:100DA00005018F3FC9F08F5F17C008DA8983882358
:100DB00009F460C080910501863F08F083C0865F1A
:100DC0000BC0FCD98983882309F464C08091050194
:100DD0008C3908F077C08C5980930501809104010B
:100DE00084CFECD9882381F09091A90180910401EE
:100DF000911160C0C092A9011D8277CF80E591E07A
:100E00001BCFAFEFAD8371CF809104011D826DCFF9
:100E1000DCD9882309F49ACF80910401882309F44E
:100E200066CF81508093040160CFCFD9882309F425
:100E30008DCF809104018A3008F459CF8A50809375
:100E4000040153CFC2D9882309F480CF80910401D3
:100E5000843608F44CCF84568093040146CFB5D92C
:100E6000882309F473CF80910501882309F4B4CF56
:100E70008150B2CFAAD9882309F468CF80910501A7
:100E80008A3010F08A50898399819093050180916E
:100E900004012BCF9AD9882309F458CF80910501FA
:100EA000843610F08456898389818093050180916E
:100EB00004011BCF913009F018CF1092A90115CF72
:100EC0008FEF66CF8FEF88CF809307016093060185
:100ED0000895CF93DF9300D000D0CDB7DEB78091D7
:100EE000AC019091AD01A091AE01B091AF01BC01F8
:100EF000CD010F900F900F900F90DF91CF9108953B
:100F0000CF93DF9300D000D0CDB7DEB78091B00192
:100F10009091B101A091B201B091B301BC01CD019A
:100F20000F900F900F900F90DF91CF910895209127
:100F300007018091AA019091AB01280F392F311D33
:100F40003093AB012093AA01121613060CF049C08E
:100F50006091060170E050E040E05FEF4FEF6115F7
:100F6000710509F12617370718F4552744271BC0C8
:100F70000024039477FB3EF0660F771F2617370790
:100F8000C0F77695679555274427440F551F2617B8
:100F9000370728F0439509F45395261B370B7695B0
:100FA00067950A9491F799013093AB012093AA01B8
:100FB0008091B0019091B101A091B201B091B301C3
:100FC000840F911DA11DB11D8093B0019093B101BB
:100FD000A093B201B093B3018091700082608093BE
:100FE000700008950F931F93809107014091AA010B
:100FF0005091AB0190E09A01281B390B3093AB0163
:101000002093AA0137FF52C020910601841B950B43
:10101000422F50E030E020E08901BC013FEF2FEF8C
:101020004115510509F16417750718F43327222774
:101030001BC00024039457FB3EF0440F551F641758
:101040007507C0F75695479533272227220F331F80
:101050006417750728F0239509F43395641B750B05
:10106000569547950A9491F78B01A80151954195A2
:1010700051095093AB014093AA018091B001909126
:10108000B101A091B201B091B301821B9109A109F4
:10109000B1098093B0019093B101A093B201B093D4
:1010A000B301809170008260809370001F910F9156
:1010B00008951F921FB61F9211244F935F936F9351
:1010C0007F938F939F93AF93BF93809170008D7F99
:1010D000809370008FB7F8944091B0015091B101A6
:1010E0006091B2017091B3018FBF8091AC0190917A
:1010F000AD01A091AE01B091AF0184179507A6078D
:10110000B70790F5409A8FB7F89497EC9093B20098
:101110009FEF97BB8FBF8091AC019091AD01A091E3
:10112000AE01B091AF010196A11DB11D8093AC013C
:101130009093AD01A093AE01B093AF01481759074A
:101140006A077B0729F080917000826080937000AD
:10115000BF91AF919F918F917F916F915F914F91CF
:101160001F901FBE1F901895481759076A077B07E5
:1011700028F740988FB7F89497EC9093B2009FEFC0
:1011800097BB8FBF8091AC019091AD01A091AE0152
:10119000B091AF010197A109B1098093AC0190937F
:1011A000AD01A093AE01B093AF01C8CF3A9A539A64
:1011B000389A429A83E38093B0008AE08093B1002A
:1011C0001092B30088EC8093B40040988FB7F894E5
:1011D00097EC9093B2009FEF97BB8FBF08950CD010
:1011E000BAC0B2D040F0A9D030F021F45F3F19F07E
:1011F0009BC05111E4C09EC0BFD098F39923C9F39E
:101200005523B1F3951B550BBB27AA27621773070C
:10121000840738F09F5F5F4F220F331F441FAA1FC0
:10122000A9F333D00E2E3AF0E0E830D09150504080
:10123000E695001CCAF729D0FE2F27D0660F771F2E
:10124000881FBB1F261737074807AB07B0E809F010
:10125000BB0B802DBF01FF2793585F4F2AF09E3FA5
:10126000510568F061C0ABC05F3FECF3983EDCF322
:10127000869577956795B795F7959F5FC9F7880F1E
:10128000911D9695879597F90895E1E0660F771F70
:10129000881FBB1F621773078407BA0720F0621B01
:1012A000730B840BBA0BEE1F88F7E0950895E89452
:1012B00009C097FB3EF490958095709561957F4F9E
:1012C0008F4F9F4F9923A9F0F92F96E9BB2793954C
:1012D000F695879577956795B795F111F8CFFAF45C
:1012E000BB0F11F460FF1BC06F5F7F4F8F4F9F4F8D
:1012F00016C0882311F096E911C0772321F09EE8EB
:10130000872F762F05C0662371F096E8862F70E050
:1013100060E02AF09A95660F771F881FDAF7880F2A
:101320009695879597F9089597F99F6780E870E0FB
:1013300060E008959FEF80EC089500240A9416164B
:10134000170618060906089500240A9412161306B3
:10135000140605060895092E0394000C11F4882341
:1013600052F0BB0F40F4BF2B11F460FF04C06F5F5D
:101370007F4F8F4F9F4F089557FD9058440F551F33
:1013800059F05F3F71F04795880F97FB991F61F007
:101390009F3F79F087950895121613061406551F7E
:1013A000F2CF4695F1DF08C0161617061806991FEA
:1013B000F1CF86957105610508940895E894BB27DF
:1013C00066277727CB0197F90895A5E1B0E0EAEE0B
:1013D000F9E0AAC37C011B015A01DC0117961C929B
:1013E0001E92169713968C9181FF4AC3FE01319687
:1013F0004F01D70113969C91F10193FD859193FFC5
:1014000081911F01882309F4D3C2853239F493FDF9
:10141000859193FF81911F01853231F4B70190E0EE
:10142000B7D465015601E5CF10E0512C00E0003241
:1014300038F48B3209F190F48032F9F0833209F1FB
:1014400007FD34C020ED280F2A3020F506FF1BC011
:10145000BAE01B9F200D1124122F05C08D3279F0A8
:10146000803371F70160F10193FD859193FF8191C4
:101470001F018111DCCF1AC002600460F4CF086044
:10148000F2CF0061F0CFEAE05E9E200D1124522ED3
:101490000062E9CF8E3221F406FD8AC20064E3CFF8
:1014A0008C3611F40068DFCF8836E9F29BEB980F99
:1014B000933008F06FC00061805E06FF16E00F7386
:1014C000702E853609F06DC0689476F877FE73C08B
:1014D000812F1C3308F08BE344244394480E27E00B
:1014E000D5014D915D916D917D916D014C875D8729
:1014F0006E877F87042DA4016C857D858E859F85F1
:1015000059D35C01B981BC87B0FF04C06DE2662E7F
:10151000B3FF0BC05BE2652E71FC07C0E72DE470E2
:101520006E2E72FE02C070E2672E0C850C7009F4FC
:1015300052C06110A8C2F3E000E0F51588F483E022
:10154000052D081B73FC06C0B70180E290E020D493
:101550000150D1F7662021F0B701862D90E018D414
:10156000FC8548E6A42E40E0B42EF3FD04C03CE622
:10157000A32E30E0B32E172D1071F5018491811147
:1015800021C0002309F44ECFB70180E290E000D4DF
:101590000150F7CF9BE9980F933008F034C10F7ECC
:1015A0008CCF863619F4689477F890CF112309F41C
:1015B0008DCF11508BCF212F183010F027E017E07E
:1015C000412C8ECF11118052B70190E0E1D32FEF63
:1015D000A21AB20AD2CF77FE75C04A0CFC85F4FF7E
:1015E00004C08A81813309F44A9414140CF08DC02C
:1015F00028E0241510F428E0422E85E090E077FEE4
:1016000006C0C501B7FE02C090E080E001966110FF
:101610000196112331F0212F30E02F5F3F4F820FD1
:10162000931F5816190619F014F0052D081B872D65
:10163000897011F401116EC0662021F0B701862D6A
:1016400090E0A6D373FC02C001116AC077FE93C07C
:10165000B98AA88AB7FE02C0198A188A6888798868
:10166000A501441951095D8B4C8B412E512C6627E5
:101670007727641975097B8B6A8BA614B7040CF461
:1016800055C08C899D89861597050CF04FC0F501D2
:10169000E619F709E80DF91D818191E0691A7108D1
:1016A000AA89BB896A167B060CF442C0B70190E098
:1016B0006FD3BFEF6B167B0601F7B7018EE290E0A8
:1016C00067D3DBCF76FC99CFE12FF0E0EA15FB057D
:1016D0003CF03CEFA3163FEFB30614F0689477F8A4
:1016E0003296E80DF91D01C01150112319F08291B5
:1016F0008033D1F377FE81CF44244394410E1A15F1
:101700001B0431F02CF01A1978CF4424439475CF80
:1017100010E073CFB70180E290E03AD301508ACF56
:10172000B70180E390E034D301508ECF80E3B5CF92
:10173000688979896150710940945094E889F989E0
:101740004E165F069CF4461A570A460E571EA414FE
:10175000B50441F49A81963360F4953319F4FC850D
:10176000F4FF07C0B70190E013D30BCF512C412CED
:10177000ECCF81E3F7CF8A81813319F02C852F7E5E
:101780002C87B70190E004D3112399F0B7018EE2C2
:1017900090E0FED292E0692E610E12E0E12F1F5F11
:1017A000E80DF92DF11D8081B70190E0F1D26112B1
:1017B000F5CF85E690E074FE02C085E490E0B701C5
:1017C000E7D2B7FC06C0A114B104B1F43C8534FFE4
:1017D00013C0B194A194B1088DE2B70190E0D8D2C2
:1017E00080E35AE0A516B1044CF4B70190E0D0D2E2
:1017F000B701C501C096B8CF8BE2EFCF8F5F4AE04B
:10180000A41AB108EECF8336B1F0833709F43AC099
:10181000833509F04BC0D501AD90BD906D01612FAE
:1018200070E006FD02C06FEF7FEFC5019BD23C0167
:10183000102F10680DC0650162E0C60ED11CD501E5
:101840008C91898366246394712C5401102F1F7727
:1018500013FD04C05614170409F010F5052D61148A
:10186000710409F48ECEF50117FD859117FF819162
:101870005F01B70190E08CD201110150B1E06B1A09
:101880007108EDCFF501A190B1906F01612F70E06B
:1018900006FD02C06FEF7FEFC5016FD23C01D6CFCE
:1018A000B70180E290E074D25A94D4CF843619F014
:1018B000893609F06CC007FF61C0F5016191719133
:1018C000819191916F010F7697FF08C09095809557
:1018D000709561957F4F8F4F9F4F00682AE030E0F1
:1018E000A401AED2A82EA818BA2C602E06FF0BC0F9
:1018F000E89460F8A11638F404FF04C002FD02C0A9
:101900000E7E602EB12E64FE95C0FE01EA0DF11D23
:101910008081803309F087C0562D597E652E062DB3
:10192000087063FC95C060FE8FC01A2DB51410F4CA
:10193000150D1B1964FE92C0B70180E390E028D218
:1019400062FE08C088E790E061FE02C088E590E092
:10195000B7011ED2A11608F48DC0AA94B12C6FEF66
:10196000A61AB60AA80CB91CD5018E915D01B70163
:1019700090E00ED2A814B904B9F703CED5016D9149
:101980007D916D01072E000C880B990B9CCF702E5A
:10199000E89474F82AE030E0853731F1B02FB97F50
:1019A0007B2E8037A1F050F48835A1F08F36D1F02E
:1019B000F701868197816596E2E1D2C08837C1F749
:1019C00074FE02C0689472F820E130E00DC06894A3
:1019D00074F8F6CF04FF03C0EB2FE6607E2E20E103
:1019E00032E002C028E030E077FE15C0D5014D910D
:1019F0005D916D917D916D014C875D876E877F87CD
:101A0000A4016C857D858E859F851AD2A82EA81885
:101A1000072D0F7769CFF501819191916F01AC018D
:101A200070E060E0E9CF62FC02C0B39478CFB39479
:101A3000B39475CF862D867809F471CFF6CFB701B0
:101A400080E290E0A5D1B394B514C8F300E072CF62
:101A5000052D0B19B51408F46DCFF8CF862D8678B7
:101A600009F478CF8BE261FE80E267FC8DE2B7017A
:101A700090E06FCFB70180E390E08AD111506ACF38
:101A80008FEF9FEF98CF24E000E0251508F064CD9C
:101A900084E056CDA1E21A2EAA1BBB1BFD010DC08E
:101AA000AA1FBB1FEE1FFF1FA217B307E407F5070E
:101AB00020F0A21BB30BE40BF50B661F771F881FEA
:101AC000991F1A9469F760957095809590959B0180
:101AD000AC01BD01CF010895052E97FB16F40094CB
:101AE0000FD057FD05D0D6DF07FC02D046F408C062
:101AF00050954095309521953F4F4F4F5F4F08953A
:101B000090958095709561957F4F8F4F9F4F089569
:101B1000EE0FFF1F0590F491E02D09943CD0B7FF24
:101B20000895821B930B08952F923F924F925F92DC
:101B30006F927F928F929F92AF92BF92CF92DF92DD
:101B4000EF92FF920F931F93CF93DF93CDB7DEB742
:101B5000CA1BDB0B0FB6F894DEBF0FBECDBF0994D6
:101B60002A88398848885F846E847D848C849B842D
:101B7000AA84B984C884DF80EE80FD800C811B813B
:101B8000AA81B981CE0FD11D0FB6F894DEBF0FBE6A
:101B9000CDBFED010895A29FB001B39FC001A39FE7
:101BA000700D811D1124911DB29F700D811D112496
:101BB000911D0895283008F027E03327DA01990FA6
:101BC000311D87FD916000966105710539F4326021
:101BD0002E5F3D9330E32A95E1F708959F3F30F063
:101BE00080387105610509F03C5F3C5F3D939130A1
:101BF00008F08068911DDF93CF931F930F93FF929E
:101C0000EF92192F987F9695E92F96959695E90F63
:101C1000FF27E653FF4F99273327EE24FF24A70120
:101C2000E70105900894079428F4360FE71EF81E84
:101C3000491F511D660F771F881F991F0694A1F732
:101C40000590079428F4E70EF81E491F561FC11D82
:101C5000770F881F991F661F0694A1F705900794B8
:101C600028F4F80E491F561FC71FD11D880F991F52
:101C7000661F771F0694A1F70590079420F4490F7B
:101C8000561FC71FD81F990F661F771F881F0694FE
:101C9000A9F784911095177041F0D695C79557957F
:101CA0004795F794E7941A95C1F7E0E7F0E0689458
:101CB0001590159135916591959105907FE27395F9
:101CC000E118F10A430B560BC90BD009C0F7E10C20
:101CD000F11E431F561FC91FD01D7EF4703311F42F
:101CE0008A95E6CFE894015030F0080F0AF40027F7
:101CF000021708F4202F2395022F7A3328F079E376
:101D00007D932A95E9F710C07D932A9589F606946C
:101D100097956795379517951794E118F10A430B36
:101D2000560BC90BD00998F023957E9173957A33A1
:101D300008F070E37C932013B8F77E9170617D9377
:101D400030F0839571E37D9370E32A95E1F71124D8
:101D5000EF90FF900F911F91CF91DF91992787FD11
:101D600090950895FC010590615070400110D8F7DE
:101D7000809590958E0F9F1F0895FC0161507040D3
:101D800001900110D8F7809590958E0F9F1F0895B0
:101D90000F931F93CF93DF93182F092FEB018B81A4
:101DA00081FD09C01FEF0FEF812F902FDF91CF91A1
:101DB0001F910F91089582FF14C02E813F818C8165
:101DC0009D81281739073CF4E881F981CF010196FC
:101DD0009983888310838E819F8101969F838E8350
:101DE000E3CFE885F985812F0995892BA1F3DACF17
:101DF000AEE0B0E0EDEFFEE0A5CE8C01CB01BA0184
:101E0000A90126E02C831A83098397FF02C080E092
:101E100090E801979E838D83CE010196D6DA4D819D
:101E20005E8157FD0AC02F813885421753070CF495
:101E30009A01020F131FF80110822E96E4E09ECE45
:101E4000FA01AA27283051F1203181F1E8946F93EB
:101E50006E7F6E5F7F4F8F4F9F4FAF4FB1E03ED091
:101E6000B4E03CD0670F781F891F9A1FA11D680F2F
:101E7000791F8A1F911DA11D6A0F711D811D911D62
:101E8000A11D20D009F468943F912AE0269F1124D7
:101E90003019305D3193DEF6CF010895462F47703B
:101EA000405D4193B3E00FD0C9F7F6CF462F4F7096
:101EB000405D4A3318F0495D31FD4052419302D0F4
:101EC000A9F7EACFB4E0A69597958795779567959A
:101ED000BA95C9F700976105710508959B01AC019A
:101EE0000A2E06945795479537952795BA95C9F7C1
:101EF000620F731F841F951FA01D0895F894FFCFD4
:101F0000F106A606A606A606A606A606E106D506BC
:0A1F1000CB06A606BE06B306A9061E
:101F1A00A7FDFFFF010101010040145476726574A8
:101F2A00656E6F3A202534752020253575002533D6
:101F3A00752F252D33752563253569206F742F6D0F
:101F4A00696E00737570706F72743A202531316C46
:101F5A00750025327520253569202531316C7500CB
:101F6A004C65767900507261767900252D3573209B
:101F7A00253033752F2530337500253033752F25DD
:101F8A00303375203D2025660006FFFFFFFFFF075F
:061F9A00080AFF0B0CFF1A
:00000001FF
